:1000000043C067C066C065C064C063C062C061C0F1
:1000100060C07DC15EC05FC49BC45BC05AC059C094
:1000200058C057C056C0A6C0A7C0AEC0B2C0B9C065
:10003000BAC0BEC0BFC00000000000000000000346
:100040000405000000000000000001020408102068
:10005000408001020408102001020408102004045A
:100060000404040404040202020202020303030360
:1000700003030000000038003500320000000000DB
:10008000370034003100620511241FBECFE5D4E0F3
:10009000DEBFCDBF10E0A0E6B0E0EAE8FBE002C0C2
:1000A00005900D92AC37B107D9F711E0ACE7B0E09D
:1000B00001C01D92AD33B107E1F710E0C4E4D0E018
:1000C00003C02197FE0159D5C334D107D1F74FD2D0
:1000D0005AC596CF40E052EC61E070E083E990E0D1
:1000E0006DD461E083E1D8D161E082E1D5D161E0F6
:1000F00081E1D2D161E080E1CFC1209162008091A5
:10010000880090918900213011F4019603C02111DB
:1001100005C00197909389008093880080918800A2
:1001200090918900089724F010928900109288001D
:10013000809188009091890097FF06C087E090E049
:10014000909389008093880008950F931F93CF9315
:10015000DF938C01C0E0D0E0C017D1070CF044C0A1
:10016000E0918800F0918900E830F10570F5ED5ECE
:10017000FF4F099460E01FC060E083E1C9D160E0F7
:1001800082E1C6D161E01DC060E083E1C1D160E0E1
:1001900004C060E083E1BCD161E082E1B9D161E0FB
:1001A0001BC060E001C061E083E1B2D161E011C039
:1001B00061E00CC061E083E1ABD160E082E1A8D1F5
:1001C00060E081E1A5D161E00AC060E083E1A0D1F7
:1001D00060E082E19DD160E081E19AD160E080E160
:1001E00097D18BDF2196B8CFDF91CF911F910F91DF
:1001F0000895CF92DF92EF92FF920F931F93809119
:10020000600090916100181619060CF055C0C9D015
:1002100060938000709381008093820090938300AC
:100220000091840010918500209186003091870014
:10023000DC01CB01801B910BA20BB30B883E9340DA
:10024000A105B105E0F281E090E07FDFC0907C0085
:10025000D0907D00E0907E00F0907F00A2D00091D1
:100260008400109185002091860030918700C01A8B
:10027000D10AE20AF30ADC01CB018C0D9D1DAE1DF3
:10028000BF1D80937C0090937D00A0937E00B0936F
:100290007F0087D0609384007093850080938600F0
:1002A00090938700809160009091610001979093F6
:1002B000610080936000A3CF40917C0050917D004D
:1002C00060917E0070917F002AE030E083E990E049
:1002D00058D263E670E083E990E0A8D160ED77E062
:1002E00080E090E084D081E090916200911180E004
:1002F000809362008FEF9FE0909361008093600095
:100300001F910F91FF90EF90DF90CF9008951F9273
:100310000F920FB60F9211242F933F938F939F93B9
:10032000AF93BF9380918B0090918C00A0918D0032
:10033000B0918E0030918A0026E0230F2D3720F4F3
:100340000296A11DB11D05C029E8230F0396A11D2A
:10035000B11D20938A0080938B0090938C00A09312
:100360008D00B0938E0080918F0090919000A091AD
:100370009100B09192000196A11DB11D80938F0054
:1003800090939000A0939100B0939200BF91AF9191
:100390009F918F913F912F910F900FBE0F901F90C3
:1003A00018953FB7F89480918F0090919000A0919C
:1003B0009100B091920022B708B600FE05C02F3F11
:1003C00019F00196A11DB11D3FBFBA2FA92F982F7B
:1003D0008827820F911DA11DB11DBC01CD0143E0F5
:1003E000660F771F881F991F4A95D1F70895CF92FE
:1003F000DF92EF92FF92CF93DF936B017C01D1DF0D
:10040000EB01C114D104E104F10471F0CADF6C1BEB
:100410007D0B683E7340A8F381E0C81AD108E1085B
:10042000F108C851DC4FEDCFDF91CF91FF90EF90F5
:10043000DF90CF900895789483B7826083BF83B7AD
:10044000816083BF89B7816089BF1EBC8EB5826021
:100450008EBD8EB581608EBD8FB581608FBD85B537
:10046000846085BD85B5806485BD329A319A309AA5
:10047000379A1AB80895843039F0853049F08330BE
:1004800051F48FB58F7702C08FB58F7D8FBD0895E2
:1004900085B58F7D85BD0895CF93DF9390E0FC01F6
:1004A000E65BFF4F2491FC01E25AFF4F84918823C1
:1004B00061F190E0880F991FFC01E458FF4FC5914E
:1004C000D491FC01EE58FF4FA591B491611109C080
:1004D0009FB7F8948881209582238883EC912E23FE
:1004E0000BC0623061F49FB7F8943881822F8095F9
:1004F00083238883EC912E2B2C939FBF06C08FB74C
:10050000F894E8812E2B28838FBFDF91CF91089537
:100510001F93CF93DF93282F30E0F901EA5CFF4F60
:100520008491F901E65BFF4FD491F901E25AFF4F44
:10053000C491CC23C1F0162F81119DDFEC2FF0E088
:10054000EE0FFF1FEE58FF4FA591B4918FB7F894AF
:10055000111105C09C91ED2FE095E92302C0EC91AB
:10056000ED2BEC938FBFDF91CF911F91089563DF47
:10057000B1DDC1EAD4E03DDE2097E9F3E2D1FBCF63
:10058000CF92DF92EF92FF920F931F93CF93DF935F
:100590006C01EB017B01E40EF51E00E010E0CE15CE
:1005A000DF0561F06991D601ED91FC910190F08138
:1005B000E02DC6010995080F191FF1CFC801DF9181
:1005C000CF911F910F91FF90EF90DF90CF90089502
:1005D0006115710579F0FB0101900020E9F7319771
:1005E000AF01461B570BDC01ED91FC910280F381BA
:1005F000E02D099480E090E00895DC01ED91FC91FC
:100600000190F081E02D09940F931F93CF93DF9316
:10061000EC016DE0F2DF8C016AE0CE01EEDF800FCD
:10062000911FDF91CF911F910F9108950F931F9309
:10063000CF93DF93EC01CCDF8C01CE01E5DF800F9F
:10064000911FDF91CF911F910F9108958F929F92EB
:10065000AF92BF92CF92DF92EF92FF920F931F93D0
:10066000CF93DF93CDB7DEB7A1970FB6F894DEBF77
:100670000FBECDBF6C01142FE52FCB01022F19A2A5
:10068000223008F40AE07E0121E2E20EF11C802E05
:10069000912CA12CB12C612F7E2FA50194014BD25E
:1006A000029F1019112481E0E81AF1081A3014F49D
:1006B000105D01C0195CF7011083122FE32FCA01EE
:1006C000232B242B252B39F7B701C60181DFA196F7
:1006D0000FB6F894DEBF0FBECDBFDF91CF911F9153
:1006E0000F91FF90EF90DF90CF90BF90AF909F90D1
:1006F0008F900895CF92DF92EF92FF920F931F9306
:10070000CF93DF93EC016A017B012115310579F468
:10071000E881F9810190F081E02D642FDF91CF9184
:100720001F910F91FF90EF90DF90CF9009942A30A6
:100730003105D9F477FF18C06DE25FDF8C014427E3
:100740005527BA014C195D096E097F092AE0CE01CF
:100750007DDF800F911FDF91CF911F910F91FF904F
:10076000EF90DF90CF9008952AE0B701A601CE0167
:10077000DF91CF911F910F91FF90EF90DF90CF907D
:1007800065CF0F931F93CF93DF93EC01B3DF8C0101
:10079000CE013ADF800F911FDF91CF911F910F9112
:1007A0000895FC0124853585F901E05CFF4F8081C7
:1007B0009181329620813181821B930B8F7399270F
:1007C0000895DC011C96ED91FC911D97DF01A05C62
:1007D000BF4F2D913C91119712968D919C9111973D
:1007E0002817390739F08D919C91E80FF91F808106
:1007F00090E008958FEF9FEF0895FC01A485B585E3
:10080000FD01E05CFF4F2081318132968081918132
:100810002817390779F080819181A80FB91F8C9131
:10082000208131812F5F3F4F2F7333273183208306
:1008300090E008958FEF9FEF0895FC0181A1882338
:1008400029F0A489B5898C9186FFFBCF11A2089568
:100850000F931F93CF93DF93FC01A685B7858D017E
:10086000005C1F4FE8018881998101968F73992759
:10087000AD014E5B5F4FEA012881398182179307F2
:10088000D1F3E80128813981A20FB31F6C93A685AB
:10089000B785A05CBF4F11969C938E93A689B789AC
:1008A0002C9181E090E0078C02C0880F991F0A9478
:1008B000E2F7822B8C9381E081A30488F589E02DF7
:1008C00080818064808381E090E0DF91CF911F91EF
:1008D0000F91089508951F920F920FB60F92112451
:1008E0002F934F935F938F939F93EF93FF935A9917
:1008F0001BC02CB18091390190913A0101968F7300
:10090000992740913B0150913C018417950769F06C
:10091000E0913901F0913A01E750FF4F2083909325
:100920003A018093390101C08CB1FF91EF919F9101
:100930008F915F914F912F910F900FBE0F901F904D
:10094000189583E990E02DDF892B09F0C3CF089536
:100950001F920F920FB60F9211242F933F938F93F4
:100960009F93EF93FF932091F5003091F6008091D3
:10097000F7009091F8002817390711F4559813C023
:10098000E091F700F091F800EB54FF4F2081809147
:10099000F7009091F80001968F7399279093F800D3
:1009A0008093F7002CB9FF91EF919F918F913F9128
:1009B0002F910F900FBE0F901F901895CF92DF923E
:1009C000EF92FF920F931F93CF93DF93EC016A0195
:1009D0007B01EC89FD8981E090E008A002C0880FCE
:1009E000991F0A94E2F7808360E874E88EE190E052
:1009F000A7019601A0D089019A010150110921098E
:100A0000310936952795179507959801011580E1CD
:100A1000180708F042C0E889F9893083EA89FB8920
:100A2000208319A2EE89FF89408181E090E09C013A
:100A30000C8C02C0220F331F0A94E2F7242B208370
:100A4000EE89FF8940819C010D8C02C0220F331F6B
:100A50000A94E2F7242B2083EE89FF8940819C01D0
:100A60000E8C02C0220F331F0A94E2F7242B20833E
:100A7000EE89FF8920810F8C02C0880F991F0A948C
:100A8000E2F7809582238083DF91CF911F910F91B0
:100A9000FF90EF90DF90CF900895EC89FD89108250
:100AA00060E472E48FE090E0A701960144D0DA019F
:100AB000C9010197A109B109B695A79597958795A1
:100AC0009C01A9CFE3E9F0E01382128288EE93E063
:100AD000A0E0B0E084839583A683B78380E790E0AD
:100AE0009183808389EF90E09587848785EB90E000
:100AF0009787868780E490E0918B808B29E230E0B5
:100B0000338B228B2BE230E0358B248B2AE230E0D2
:100B1000378B268B918F808F8CE290E0938F828F22
:100B200084E0848F83E0858F87E0868F85E0878FE0
:100B300081E080A30895A1E21A2EAA1BBB1BFD0130
:100B40000DC0AA1FBB1FEE1FFF1FA217B307E407AC
:100B5000F50720F0A21BB30BE40BF50B661F771F04
:100B6000881F991F1A9469F76095709580959095E4
:100B70009B01AC01BD01CF010895EE0FFF1F059051
:0A0B8000F491E02D0994F894FFCFE2
:100B8A00FF0F01576169742E2E2E2100000000000C
:0C0B9A002804C002D103FD03E1031D0488
:00000001FF
