:100000000C945D000C9485000C9485000C94850084
:100010000C9485000C9485000C9485000C9485004C
:100020000C9485000C9485000C9485000C9485003C
:100030000C9485000C9485000C9485000C9485002C
:100040000C9433010C9485000C94AC020C94DE02E9
:100050000C9485000C9485000C9485000C9485000C
:100060000C9485000C94850000000008000201003B
:100070000003040700000000000000000102040863
:100080001020408001020408102001020408102002
:10009000040404040404040402020202020203032E
:1000A0000303030300000000250028002B000000CC
:1000B0000000240027002A000E0311241FBECFEFEA
:1000C000D8E0DEBFCDBF11E0A0E0B1E0EAEBFCE09C
:1000D00002C005900D92AE31B107D9F721E0AEE133
:1000E000B1E001C01D92AA3CB207E1F710E0CAEBF3
:1000F000D0E004C02297FE010E945706C83BD107FA
:10010000C9F70E949D020C945B060C940000EF92CC
:10011000FF920F931F93CF93DF9326E040E855E2C1
:1001200060E070E08DE291E00E945C0461E080910B
:100130000C010E942D0261E080910A010E942D02B3
:1001400088E0E82E81E0F82E61E0F70180810E94CE
:100150002D0206E011E061E0F80180810E942D028D
:10016000C4E0D1E061E088810E942D0260E0F701E7
:1001700080810E94660260E0F80180810E94660230
:1001800061E088810E94660220E030E048E453E4A8
:100190006091000170910101809102019091030131
:1001A0000E94A80520E030E040E051E40E94A8054C
:1001B00020E030E040E752E40E94BE040E942605A1
:1001C000AB01BC01509321014093200188EE93E0E4
:1001D000BA010E940B0670931F0160931E01DF910C
:1001E000CF911F910F91FF90EF900895CF93DF93E0
:1001F0008091220190912301892B61F460E080912C
:100200000C010E94660281E090E0909323018093AC
:10021000220109C061E080910C010E9466021092E7
:10022000230110922201C8E9DAE361E080910A011A
:100230000E94660260E080910A010E94660260915D
:100240001E0170911F01882777FD8095982F0E94CD
:10025000A001219751F764EF71E080E090E0DF9119
:10026000CF910C94A0011F920F920FB60F92112400
:100270002F933F938F939F93AF93BF9380912501CB
:1002800090912601A0912701B0912801309124017D
:1002900023E0230F2D3720F40196A11DB11D05C0C9
:1002A00026E8230F0296A11DB11D209324018093FF
:1002B000250190932601A0932701B09328018091F6
:1002C000290190912A01A0912B01B0912C01019656
:1002D000A11DB11D8093290190932A01A0932B01A8
:1002E000B0932C01BF91AF919F918F913F912F912E
:1002F0000F900FBE0F901F9018953FB7F894809104
:10030000290190912A01A0912B01B0912C0126B5D1
:10031000A89B05C02F3F19F00196A11DB11D3FBF3D
:100320006627782F892F9A2F620F711D811D911DCD
:1003300042E0660F771F881F991F4A95D1F70895ED
:10034000CF92DF92EF92FF92CF93DF936B017C010C
:100350000E947D01EB01C114D104E104F10489F094
:100360000E9403020E947D016C1B7D0B683E73405E
:1003700090F381E0C81AD108E108F108C851DC4FB8
:10038000EACFDF91CF91FF90EF90DF90CF9008956B
:10039000789484B5826084BD84B5816084BD85B560
:1003A000826085BD85B5816085BDEEE6F0E0808127
:1003B00081608083E1E8F0E0108280818260808348
:1003C000808181608083E0E8F0E0808181608083CB
:1003D000E1EBF0E0808184608083E0EBF0E08081FD
:1003E00081608083EAE7F0E080818460808380819F
:1003F0008260808380818160808380818068808347
:100400001092C10008950895833081F028F481305E
:1004100099F08230A1F008958730A9F08830B9F0C2
:100420008430D1F4809180008F7D03C08091800062
:100430008F7780938000089584B58F7702C084B54C
:100440008F7D84BD08958091B0008F7703C0809127
:10045000B0008F7D8093B0000895CF93DF9390E03C
:10046000FC01E458FF4F2491FC01E057FF4F8491B9
:10047000882349F190E0880F991FFC01E255FF4F56
:10048000A591B4918C559F4FFC01C591D4919FB714
:10049000611108C0F8948C91209582238C938881F7
:1004A00082230AC0623051F4F8948C91322F309537
:1004B00083238C938881822B888304C0F8948C9149
:1004C000822B8C939FBFDF91CF9108950F931F9341
:1004D000CF93DF931F92CDB7DEB7282F30E0F9011D
:1004E000E859FF4F8491F901E458FF4F1491F90145
:1004F000E057FF4F04910023C9F0882321F069835E
:100500000E9404026981E02FF0E0EE0FFF1FEC551E
:10051000FF4FA591B4919FB7F8948C91611103C0DE
:100520001095812301C0812B8C939FBF0F90DF9189
:10053000CF911F910F91089508950E94C8010E94C4
:100540009C020E948700C6EAD3E00E94F600209732
:10055000E1F30E94A603F9CF1F920F920FB60F92FC
:1005600011242F938F939F93EF93FF93E0913D017D
:10057000F0913E018081E0914301F091440182FDC0
:1005800012C09081809146018F5F8F732091470147
:10059000821751F0E0914601F0E0E35DFE4F958F48
:1005A0008093460101C08081FF91EF919F918F91CF
:1005B0002F910F900FBE0F901F9018951F920F92C2
:1005C0000FB60F9211242F933F934F935F936F9326
:1005D0007F938F939F93AF93BF93EF93FF938DE29E
:1005E00091E00E94B403FF91EF91BF91AF919F9171
:1005F0008F917F916F915F914F913F912F910F90CC
:100600000FBE0F901F9018958DE291E00E94790324
:1006100021E0892B09F420E0822F08951092300107
:1006200010922F0188EE93E0A0E0B0E080933101BA
:1006300090933201A0933301B093340182E191E0B1
:1006400090932E0180932D0185EC90E090933A01D8
:100650008093390184EC90E090933C0180933B01BE
:1006600080EC90E090933E0180933D0181EC90E01E
:100670009093400180933F0182EC90E0909342017F
:100680008093410186EC90E0909344018093430174
:1006900010924601109247011092480110924901B0
:1006A0000895CF92DF92EF92FF920F931F93CF9313
:1006B000DF936C017A01EB01E60EF71E00E010E01B
:1006C000CE15DF0561F06991D601ED91FC910190A5
:1006D000F081E02DC6010995080F191FF1CFC8015F
:1006E000DF91CF911F910F91FF90EF90DF90CF900E
:1006F0000895FC01818D228D90E0805C9F4F821BCC
:1007000091098F7399270895FC01918D828D981717
:1007100031F0828DE80FF11D858D90E008958FEF07
:100720009FEF0895FC01918D828D981761F0828D65
:10073000DF01A80FB11D5D968C91928D9F5F9F7315
:10074000928F90E008958FEF9FEF089584E093E0FB
:10075000892B49F080E090E0892B29F00E94040366
:1007600081110C9400000895FC01848DDF01A80F15
:10077000B11DA35ABF4F2C91848D90E001968F73C9
:100780009927848FA689B7892C93A089B1898C91E8
:1007900080648C93938D848D981306C00288F389AE
:1007A000E02D80818F7D80830895CF93DF93EC01CE
:1007B000888D8823C9F0EA89FB89808185FD05C081
:1007C000A889B9898C9186FD0FC00FB607FCF5CFBB
:1007D000808185FFF2CFA889B9898C9185FFEDCF03
:1007E000CE010E94B403E7CFDF91CF910895CF925D
:1007F000DF92FF920F931F93CF93DF931F92CDB79A
:10080000DEB76C0181E0D60158968C9358975B96C1
:100810009C915B975C968C915C97981307C050965F
:10082000ED91FC915197808185FD2EC0F601038DDD
:1008300010E00F5F1F4F0F731127F02EF601848D0C
:10084000F81211C00FB607FCF9CFD6015096ED9102
:10085000FC915197808185FFF1CFC60169830E9489
:10086000B4036981EBCF838DE80FF11DE35AFF4F8D
:100870006083D6015B960C935B975296ED91FC9149
:100880005397808180620CC0D6015696ED91FC9101
:10089000579760835096ED91FC91519780818064C9
:1008A000808381E090E00F90DF91CF911F910F91B5
:1008B000FF90DF90CF900895BF92CF92DF92EF929A
:1008C000FF92CF93DF93EC016A017B01B22EE8899E
:1008D000F98982E08083411581EE58076105710531
:1008E000A1F060E079E08DE390E0A70196010E941D
:1008F0001F062150310941095109569547953795F1
:100900002795211580E1380798F0E889F989108248
:1009100060E874E88EE190E0A70196010E941F064E
:100920002150310941095109569547953795279529
:10093000EC85FD853083EE85FF852083188EEC895C
:10094000FD89B082EA89FB89808180618083EA89A0
:10095000FB89808188608083EA89FB898081806847
:100960008083EA89FB8980818F7D8083DF91CF91AD
:10097000FF90EF90DF90CF90BF9008950CD0AEC065
:10098000A6D040F09DD030F021F45F3F19F08FC029
:100990005111D8C092C0B3D098F39923C9F355230D
:1009A000B1F3951B550BBB27AA2762177307840762
:1009B00038F09F5F5F4F220F331F441FAA1FA9F318
:1009C00033D00E2E3AF0E0E830D091505040E6950A
:1009D000001CCAF729D0FE2F27D0660F771F881F6B
:1009E000BB1F261737074807AB07B0E809F0BB0B5A
:1009F000802DBF01FF2793585F4F2AF09E3F51057E
:100A000068F055C09FC05F3FECF3983EDCF38695DD
:100A100077956795B795F7959F5FC9F7880F911DF3
:100A20009695879597F90895E1E0660F771F881FDF
:100A3000BB1F621773078407BA0720F0621B730B92
:100A4000840BBA0BEE1F88F7E095089504D06894E4
:100A5000B11178C008955BD088F09F5790F0B92FFE
:100A60009927B751A0F0D1F0660F771F881F991F03
:100A70001AF0BA95C9F712C0B13081F062D0B1E076
:100A800008955FC0672F782F8827B85F39F0B93F86
:100A9000CCF3869577956795B395D9F73EF4909505
:100AA0008095709561957F4F8F4F9F4F089597F96F
:100AB0009F6780E870E060E008959FEF80EC089504
:100AC00000240A941616170618060906089500242D
:100AD0000A9412161306140605060895092E0394A7
:100AE000000C11F4882352F0BB0F40F4BF2B11F41B
:100AF00060FF04C06F5F7F4F8F4F9F4F089557FD7A
:100B00009058440F551F59F05F3F71F04795880F7B
:100B100097FB991F61F09F3F79F087950895121612
:100B200013061406551FF2CF4695F1DF08C01616BE
:100B300017061806991FF1CF86957105610508946F
:100B40000895E894BB2766277727CB0197F9089586
:100B50000BD0C4CFB5DF28F0BADF18F0952309F029
:100B6000A6CFABCF1124EECFCADFA0F3959FD1F370
:100B7000950F50E0551F629FF001729FBB27F00D4B
:100B8000B11D639FAA27F00DB11DAA1F649F6627A0
:100B9000B00DA11D661F829F2227B00DA11D621FEF
:100BA000739FB00DA11D621F839FA00D611D221FA9
:100BB000749F3327A00D611D231F849F600D211D8D
:100BC000822F762F6A2F11249F5750408AF0E1F030
:100BD00088234AF0EE0FFF1FBB1F661F771F881F79
:100BE00091505040A9F79E3F510570F060CFAACFB9
:100BF0005F3FECF3983EDCF3869577956795B79564
:100C0000F795E7959F5FC1F7FE2B880F911D96958D
:100C1000879597F9089597FB072E16F4009407D04F
:100C200077FD09D00E94410607FC05D03EF490955F
:100C300081959F4F0895709561957F4F0895A1E22A
:100C40001A2EAA1BBB1BFD010DC0AA1FBB1FEE1F46
:100C5000FF1FA217B307E407F50720F0A21BB30B91
:100C6000E40BF50B661F771F881F991F1A9469F70D
:100C700060957095809590959B01AC01BD01CF0169
:100C80000895AA1BBB1B51E107C0AA1FBB1FA617D3
:100C9000B70710F0A61BB70B881F991F5A95A9F725
:100CA00080959095BC01CD010895EE0FFF1F059032
:0A0CB000F491E02D0994F894FFCFB1
:100CBA00000020410C0008000B000A000900000097
:0E0CCA000000F7035103790392038403D5035E
:00000001FF
